:100CB10000A000BB0062002A0039002C002400BA09
:100CC1000020002800FF0080009B0042000A00195C
:100CD100000C0004009A00000008007F00FE00FDE7
:040CE10000FB00F71D
:100DBC00EF4E60147DC87C00ED1D70011CED4C7075
:080DCC00F7EF1F70EB1E80E839
:010DD40022FC
:100D8000C2A77F677E00EF1F70011EEF4E70F7D283
:0E0D9000A77E007F04EF1F70011EEF4E70F76C
:010D9E002232
:100D5C00C2A70FBF0000D2A70FBF00000FBF00003B
:100D6C00A2A792007E007F08EF1F70011EEF4E704D
:030D7C00F7A200DB
:010D7F002251
:100D9F00E4FD7C01120D5CE433FFC4333333548024
:0C0DAF00FEEDC3134EFD0CBC09EAAF05BD
:010DBB002215
:0C0BED00120D807F017E00120DBC7FCC39
:100BF9007E01EF139200EFC313FF30001BC2A70B56
:100C0900BB00000BBB0000D2A77A007B08EB1B706E
:100C1900011AEB4A70F7801BC2A77A007B08EB1B0D
:100C290070011AEB4A70F7D2A70BBB00010A0BBB84
:070C390000010A0EBE09BB19
:010C40002291
:08000300120BED7F44020BF922
:100C7D00120BED7FBE120BF9120D9FAB07120D9FDC
:100C8D00750C008F0DE50D750D00F50CAF03EF42E2
:100C9D000DE4AC0CAD0D12027EE4FBFA7980783DCB
:030CAD001201062B
:010CB0002221
:090CE500F808E6F5807F017E00AD
:100CEE00E4FDFCC3ED9FEC9E5015E4FBFA0BBB003C
:0F0CFE00010AEB64784A70F50DBD00010C80E42B
:010D0D0022C3
:0C0DD500E4F590F5807FE87E03020CEE50
:0D083D00A2A2E433752B00F52CAF15AE140C
:04084A00AB07AA0648
:10084E00C3EB9464EA9400401D7C007D6412034A5D
:10085E008E2F8F307C007D64120338C3EB9FFFEA2E
:10086E009EFE7D0A801FC3EB940AEA9400402EEB95
:10087E009464EA94005026752F0075300A7C007D32
:10088E000AAF03AE0212034A8E318F327C007D0A0C
:10089E00AF03AE0212034A8C338D34801EC3EA942A
:1008AE00004018EB940AEA94005010752F00753032
:1008BE000A75310075320A8A338B34E53025E0FF34
:1008CE00E52F33FE74B12FF582740C3EF583E4935D
:1008DE00F537740193F538E53225E0FFE53133FE47
:1008EE0074B12FF582740C3EF583E493F5397401DF
:1008FE0093F53AE53425E0FFE53333FE74B12FF579
:10090E0082740C3EF583E493F53B740193F53CE45D
:10091E00F535F5367590FF7580FFE53625E0FFE578
:10092E003533FE74DF2FF582740C3EF5837401931C
:10093E00F590E53625E02437120CE57590FF7580AD
:10094E00FF0536E53670020535C39403E535940090
:02095E0040C295
:010960002274
:08096100AF19AE18AD17AC167A
:080969008F2C8E2B8D2A8C29A6
:100971001202B7AB07AA067C007D0A12034A8E2D2C
:100981008F2E7C007D0AAF03AE0212034A8C2F8D9D
:1009910030AE02AF03AD07AC06E412027EA804A993
:1009A10005AA06AB07AF2CAE2BAD2AAC291200115C
:1009B100E4FBFA792078411201061202B7AD07ACC7
:1009C10006E52E25E0FFE52D33FE74B12FF5827487
:1009D1000C3EF583E493F533740193F534E530254A
:1009E100E0FFE52F33FE74C72FF582740C3EF583CB
:1009F100E493F535740193F536ED25E0FFEC33FE14
:100A010074B12FF582740C3EF583E493F5377401CC
:100A110093F538C2A9E4F531F5327590FF7580FF81
:100A2100E53225E0FFE53133FE74DD2FF582740CEC
:100A31003EF583740193F590E53225E02433120CE1
:100A4100E57590FF7580FF0532E53270020531C30F
:0A0A51009403E531940040C2D2A9DD
:010A5B002278
:04059A008E298F2AED
:10059E007C027D58120338AB07AA06D3EB94E8EA27
:1005AE00940340570C7DE812034A8E2B8F2C7C034C
:1005BE007DE81203388E838F82C3EB9582FFEA9516
:1005CE0083FE7C007D6412034A8E2D8F2EC3EB9525
:1005DE0082F582EA9583F5837C007D64120338C32D
:1005EE00E5829FFFE5839EFE7D0A12034A8E2F8FC2
:1005FE00307C007D0AAF03AE028034752B00752C63
:10060E000A7C007D64AF03AE0212034A8E2D8F2E3C
:10061E007C007D64120338C3EB9FFFEA9EFE7D0AC9
:10062E0012034A8E2F8F30AE02AF037C007D0A126A
:10063E00034A8C318D32E52C25E0FFE52B33FE7419
:10064E00B12FF582740C3EF583E493F53574019366
:10065E00F536E52E25E0FFE52D33FE74B12FF5823C
:10066E00740C3EF583E493F537740193F538E53059
:10067E0025E0FFE52F33FE74B12FF582740C3EF5A5
:10068E0083E493F539740193F53AE53225E0FFE5FD
:10069E003133FE74B12FF582740C3EF583E493F57D
:1006AE003B740193F53CE4F508F509C3E509941490
:1006BE00E50894005050E4F533F5347590FF7580DD
:1006CE00FFE53425E0FFE53333FE74DD2FF582744C
:1006DE000C3EF583740193F590E53425E024351234
:1006EE000CE50534E53470020533C39404E5339408
:1006FE000040C8C3E513952AE51295295004D2B3DC
:06070E0080A9C2B380A522
:0107140022C2
:100A5C00E4F52DF52EA2A333752900F52A4529704E
:100A6C003AA2A3E433752900F52A120846C3E5130C
:100A7C009511E51295105004D2B38002C2B3E52A49
:100A8C00452960DDD3E515940AE5149400400C74F7
:100A9C00F62515F51574FF3514F514A2A2E433757B
:100AAC002B00F52C452B703012083DC3E513951126
:100ABC00E51295105004D2B38002C2B3E52C452B3D
:100ACC0060E6C3E51594E8E5149403500B740A250D
:100ADC0015F515E43514F514A2A1E433700F1208C2
:100AEC003DE52C452B60F7752D00752E01AE2DAF15
:010AFC002ECB
:010AFD0022D6
:10071500EF64014E600302083CFFFE7D707C41AB37
:1007250019AA18A917A81612020C5006E4F510F517
:100735001122E4FFFE7D907C41AB19AA18A917A8E8
:100745001612020C501BE4FFFE7D707C41AB19AA0A
:1007550018A917A81612020C40077510007511018B
:1007650022E4FFFE7DA87C41AB19AA18A917A8169B
:1007750012020C501BE4FFFE7D907C41AB19AA18B8
:10078500A917A81612020C4007751000751103224F
:10079500E4FFFE7DC07C41AB19AA18A917A8161263
:1007A500020C501BE4FFFE7DA87C41AB19AA18A9D9
:1007B50017A81612020C400775100075110522E4E2
:1007C500FFFE7DD87C41AB19AA18A917A8161202FD
:1007D5000C501BE4FFFE7DC07C41AB19AA18A9177C
:1007E500A81612020C400775100075110722E4FFC8
:1007F500FE7DF07C41AB19AA18A917A81612020CA8
:10080500501BE4FFFE7DD87C41AB19AA18A917A897
:100815001612020C400775100075110822E4FFFE40
:100825007DF07C41AB19AA18A917A81612020C4035
:0808350006751000751109227F
:040B8E008E298F2AF3
:100B9200E4F508F509F50E750F01D3E509952AE587
:100BA2000895295037C3E52A9509FFE5299508FEDE
:100BB2007C007D0A12034A8E2B8F2CAF0FAE0E12D1
:100BC2000715AF2CAE2B12084AC3E5139511E51297
:100BD20095105004D2B380C2C2B380BEE4F510F5C2
:0A0BE20011F50EF50FF50A750B0171
:010BEC0022E6
:100D0E00120846120A5CC3E5139511E512951050B0
:100D1E0004D2B38002C2B3EF4E60E5AE14AF157CC1
:090D2E00007D0A120338020B8E4D
:1003AD00A2A3E433752100F5224521600302046206
:1003BD007F05FE120CEEA2A3E433752100F5221287
:1003CD000961C3E5139511E51295105004D2B38060
:1003DD0002C2B3E522452160DDE4F50EF50FE5110E
:1003ED004510606BE4F50AF50BD3E5119400E510AB
:1003FD0094004013D3E5119403E510940050087553
:10040D001000751103803AD3E5119403E5109400A3
:10041D004013D3E5119406E51094005008751000B3
:10042D00751106801CD3E5119406E510940040115A
:10043D00D3E511940AE5109400500675100075115E
:10044D000974FD2511F51174FF3510F51080067531
:10045D000A00750B01A2A2E433752300F524452390
:10046D0060030205087F05FE120CEEA2A2E43375AF
:10047D002300F524120961C3E5139511E5129510BA
:10048D005004D2B38002C2B3E524452360DDE4F508
:10049D000EF50FE511640945106060C3E510940079
:1004AD004011E5119403E51094005007E4F510F5A3
:1004BD00118038C3E5119403E51094004012E51145
:1004CD009406E51094005008751000751103801BFB
:1004DD00C3E5119406E51094004010E511940AE56A
:1004ED00109400500675100075110674032511F552
:1004FD0011E43510F510E4F50AF50BA2A1E43375FE
:10050D002500F52645257043F508F509A2A1E4332C
:10051D00752500F526120961C3E5139511E51295B0
:10052D00105004D2B38002C2B3E526452560DDD359
:10053D00E509940CE5089400500EAF11AE101205AC
:10054D009AE4F50AF50B8003120D0EA2A0E43375A3
:10055D002700F528452770347F05FE120CEEA2A06A
:10056D00E433752700F528120961C3E5139511E5EC
:10057D001295105004D2B38002C2B3E5284527600E
:0C058D00DD750E00750F01E4F50AF50B9A
:01059900223F
:100D3700E5114510701EA2A6FE33640170167F648C
:100D4700120CEEA2A6E43364017009F50E750F01CB
:040D5700F50AF50B99
:010D5B002275
:100AFE00E4F512F513F508F509F51475150AF51058
:100B0E00F511758901758CD8758AF0D2AFD2A9D23C
:100B1E008CF50AF50BC2B3C2A6120DD5E4F50EF58F
:100B2E000FF519F518F517F5168014E4FFFE7DA1E3
:100B3E007C42AB19AA18A917A81612020C40101263
:100B4E000003120C7D8F198E188D178C1680DC12F7
:100B5E000961AF0FAE0E120715120D371203ADC39A
:100B6E00E5139511E51295105004D2B38002C2B36D
:100B7E00E50B6401450A70C7120D371203AD80F004
:03000B00020C41A3
:100C4100C0E0C0D0758CD8758AF00513E513700229
:100C51000512C3940AE5129400401C751200751325
:100C6100000509E5097002050894E8E508940340C8
:0C0C710006750800750900D0D0D0E032F4
:10000E00020323E86480F8E933E83360110460F0FA
:10001E00ED33EC337009E8FCE9FDEAFEEBFF220458
:10002E0060DED3EB9FEA9EE99DE8C2E78CF0C2F753
:10003E0095F0400CE8CCF8E9CDF9EACEFAEBCFFB1F
:10004E001202EE85D0F05804700320D5B3E8047088
:10005E00075002B2D502032D92D5EC0460F7E4CC22
:10006E00C0E0C398F8603B94186008400DD0E0FBE8
:10007E00020305E4FBFAC9FC8028E830E406E4C973
:10008E00FBE4CAFCE830E305E4C9CACBFCE854073C
:10009E006010F8C3E913F9EA13FAEB13FBEC13FC47
:1000AE00D8F130F52FC3E49CFCEF9BFFEE9AFEEDEA
:1000BE0099FDD0E0FBEF4E4D4C701222DB03020394
:1000CE002AEC2CFCEF33FFEE33FEED33FDED30E783
:1000DE00EB020305EF2BFFEE3AFEED39FDD0E0FB10
:1000EE0050130BBB000302032DED13FDEE13FEEFB9
:0800FE0013FFEC13FC020305E3
:10010600EC4D6011E8497017ED33EC3304600DE4F3
:10011600FCFFFEFD22E933E8330470F802032312E4
:1001260002EE58046009E4CC2481500628500902E6
:10013600032D28400302032AC0E0EB4A7044B9802D
:1001460006D0E0FB020319EF4E701CBD8008EBFFE2
:10015600EAFEE9FD80EBE98DF0A4FEE5F00201EF91
:10016600E9CDF9EAFEEBFFEF89F0A4FCE5F0CE89D4
:10017600F0A42EFFE435F0CD89F0A42DFEE435F091
:100186008067EF4E7005BD80D780C3EF8BF0A4ACBF
:10019600F0EE8BF0A42CFCE435F0F8EF8AF0A42CFA
:1001A600E5F038FCE433CB8DF0A42CFCE5F03BF80D
:1001B600EE8AF0A42CFCE5F038F8E433CF89F0A4FD
:1001C6002CFCE5F038CF3400CE89F0A42FFFE5F003
:1001D6003EFEE433C98DF0A42EFEE5F039CD8AF05B
:1001E600A42FFFE5F03EFEE43DFD33D0E0FB5007D3
:1001F6000BBB000F02032DEC2CFCEF33FFEE33FE9E
:06020600ED33FD020305CB
:10020C0074F8CC6480CCC86480C8F582046043C3A5
:10021C00EB9FF5F0EA9E42F0E99D42F0E89C45F038
:10022C0060305018E5825FFFE582F42B5582FB505D
:10023C00210ABA001D09B90019088016E5825BFB7A
:10024C00E582F42F5582FF50090EBE00050DBD004E
:10025C00010CC3EB9FF5F0EA9E42F0E99D42F0E8F9
:0D026C009C45F06007CC4820E701B3EC2270
:1002790075F020800E75F010800575F0087D007E00
:10028900007F003392D530D50312039FEC33401021
:10029900EF33FFEE33FEED33FDEC33FCD5F0ED2209
:0E02A900E5F0247EA2D513CC92E7CDCEFF2245
:1002B700EDD2E7CD33EC3392D524814006E4FFFE3F
:1002C700FDFC22FCE4CFCECDCC24E0501174FF809E
:1002D700EDC3CC13CCCD13CDCE13CECF13CF04703B
:0702E700F030D5DE02039F99
:1002EE00E9D2E7C933E833F892D5EDD2E7CD33EC56
:0702FE0033FC5002B2D522CF
:10030500EC30E7100FBF000C0EBE00080DBD000459
:100315000BEB6014A2D5EB13FCED92E7FD2274FF05
:10032500FCFDFEFF22E480F8A2D574FF13FC7D805E
:03033500E480EF72
:03000000020DE10D
:0C0DE100787FE4F6D8FD75813C020AFE24
:10033800EF8DF0A4A8F0CF8CF0A428CE8DF0A42ED9
:02034800FE2293
:10034A00BC000BBE0029EF8DF084FFADF022E4CC97
:10035A00F875F008EF2FFFEE33FEEC33FCEE9DEC60
:10036A00984005FCEE9DFE0FD5F0E9E4CEFD22EDA6
:10037A00F8F5F0EE8420D21CFEADF075F008EF2FF0
:10038A00FFED33FD4007985006D5F0F222C398FDE1
:05039A000FD5F0EA227E
:0E039F00C3E49FFFE49EFEE49DFDE49CFC226F
:00000001FF
